{
    "contractName": "Counter",
    "abi": [
        {
            "inputs": [
                {
                    "internalType": "address",
                    "name": "newGovernance",
                    "type": "address"
                }
            ],
            "stateMutability": "nonpayable",
            "type": "constructor"
        },
        {
            "inputs": [],
            "name": "governance",
            "outputs": [
                {
                    "internalType": "address",
                    "name": "",
                    "type": "address"
                }
            ],
            "stateMutability": "view",
            "type": "function"
        },
        {
            "inputs": [],
            "name": "increment",
            "outputs": [],
            "stateMutability": "nonpayable",
            "type": "function"
        },
        {
            "inputs": [],
            "name": "value",
            "outputs": [
                {
                    "internalType": "uint256",
                    "name": "",
                    "type": "uint256"
                }
            ],
            "stateMutability": "view",
            "type": "function"
        }
    ],
    "bytecode": "60806040526000805534801561001457600080fd5b5060405161020238038061020283398101604081905261003391610058565b600180546001600160a01b0319166001600160a01b0392909216919091179055610088565b60006020828403121561006a57600080fd5b81516001600160a01b038116811461008157600080fd5b9392505050565b61016b806100976000396000f3fe608060405234801561001057600080fd5b50600436106100415760003560e01c80633fa4f245146100465780635aa6e67514610062578063d09de08a1461008d575b600080fd5b61004f60005481565b6040519081526020015b60405180910390f35b600154610075906001600160a01b031681565b6040516001600160a01b039091168152602001610059565b610095610097565b005b6001546001600160a01b031633146100f55760405162461bcd60e51b815260206004820152601a60248201527f4f6e6c7920676f7665726e616e636520697320616c6c6f776564000000000000604482015260640160405180910390fd5b6001600080828254610107919061010e565b9091555050565b8082018082111561012f57634e487b7160e01b600052601160045260246000fd5b9291505056fea264697066735822122090813e417da374b39b2f4be89da130626eecdc78ab1906979a1d7d20f96d7bdf64736f6c63430008130033",
    "sourcePath": "/workspaces/ZKSYNC-Cross-chain-governance/cross-chain-tutorial/L2-counter/L2-counter/contracts/Counter.sol",
    "compiler": {
        "name": "solc",
        "version": "0.8.19+commit.7dd6d404"
    },
    "functionHashes": {
        "governance()": "5aa6e675",
        "increment()": "d09de08a",
        "value()": "3fa4f245"
    },
    "gasEstimates": {
        "creation": {
            "codeDepositCost": "72600",
            "executionCost": "infinite",
            "totalCost": "infinite"
        },
        "external": {
            "governance()": "2337",
            "increment()": "26606",
            "value()": "2262"
        }
    }
}