{
    "contractName": "Governance",
    "abi": [
        {
            "inputs": [],
            "stateMutability": "nonpayable",
            "type": "constructor"
        },
        {
            "inputs": [
                {
                    "internalType": "address",
                    "name": "zkSyncAddress",
                    "type": "address"
                },
                {
                    "internalType": "address",
                    "name": "contractAddr",
                    "type": "address"
                },
                {
                    "internalType": "bytes",
                    "name": "data",
                    "type": "bytes"
                },
                {
                    "internalType": "uint256",
                    "name": "gasLimit",
                    "type": "uint256"
                },
                {
                    "internalType": "uint256",
                    "name": "gasPerPubdataByteLimit",
                    "type": "uint256"
                }
            ],
            "name": "callZkSync",
            "outputs": [],
            "stateMutability": "payable",
            "type": "function"
        },
        {
            "inputs": [],
            "name": "governor",
            "outputs": [
                {
                    "internalType": "address",
                    "name": "",
                    "type": "address"
                }
            ],
            "stateMutability": "view",
            "type": "function"
        }
    ],
    "bytecode": "608060405234801561001057600080fd5b50600080546001600160a01b031916331790556103ef806100326000396000f3fe6080604052600436106100295760003560e01c80630c340a241461002e57806391187c6f1461006a575b600080fd5b34801561003a57600080fd5b5060005461004e906001600160a01b031681565b6040516001600160a01b03909116815260200160405180910390f35b61007d6100783660046101ca565b61007f565b005b6000546001600160a01b031633146100dd5760405162461bcd60e51b815260206004820152601860248201527f4f6e6c7920676f7665726e6f7220697320616c6c6f7765640000000000000000604482015260640160405180910390fd5b846001600160a01b03811663eb672419348760008888888360405190808252806020026020018201604052801561012857816020015b60608152602001906001900390816101135790505b50336040518963ffffffff1660e01b815260040161014c97969594939291906102f4565b60206040518083038185885af115801561016a573d6000803e3d6000fd5b50505050506040513d601f19601f8201168201806040525081019061018f91906103a0565b50505050505050565b80356001600160a01b03811681146101af57600080fd5b919050565b634e487b7160e01b600052604160045260246000fd5b600080600080600060a086880312156101e257600080fd5b6101eb86610198565b94506101f960208701610198565b9350604086013567ffffffffffffffff8082111561021657600080fd5b818801915088601f83011261022a57600080fd5b81358181111561023c5761023c6101b4565b604051601f8201601f19908116603f01168101908382118183101715610264576102646101b4565b816040528281528b602084870101111561027d57600080fd5b8260208601602083013760009281016020019290925250969995985095966060810135965060800135949350505050565b6000815180845260005b818110156102d4576020818501810151868301820152016102b8565b506000602082860101526020601f19601f83011685010191505092915050565b60018060a01b038816815260006020888184015260e0604084015261031c60e08401896102ae565b87606085015286608085015283810360a08501528086518083528383019150838160051b84010184890160005b8381101561037757601f198684030185526103658383516102ae565b94870194925090860190600101610349565b50506001600160a01b03881660c088015294506103949350505050565b98975050505050505050565b6000602082840312156103b257600080fd5b505191905056fea2646970667358221220b42d3e2dc620fb723544b973df04433b8b10a4140a4c5136719daf8d953f5d5d64736f6c63430008130033",
    "sourcePath": "/workspaces/ZKSYNC-Cross-chain-governance/cross-chain-tutorial/L1-governance/contracts/Governance.sol",
    "compiler": {
        "name": "solc",
        "version": "0.8.19+commit.7dd6d404"
    },
    "functionHashes": {
        "callZkSync(address,address,bytes,uint256,uint256)": "91187c6f",
        "governor()": "0c340a24"
    },
    "gasEstimates": {
        "creation": {
            "codeDepositCost": "201400",
            "executionCost": "24480",
            "totalCost": "225880"
        },
        "external": {
            "callZkSync(address,address,bytes,uint256,uint256)": "infinite",
            "governor()": "2303"
        }
    }
}